:100000000C9434000C9451000C9451000C94510049
:100010000C9451000C9451000C9451000C9451001C
:100020000C9451000C9451000C9451000C9440011C
:100030000C9451000C9451000C9471000C945100DC
:100040000C9451000C9451000C9451000C945100EC
:100050000C9451000C9451000C9451000C945100DC
:100060000C9451000C94510011241FBECFEFD8E026
:10007000DEBFCDBF11E0A0E0B1E0E4EEF3E002C0EE
:1000800005900D92A630B107D9F721E0A6E0B1E0C6
:1000900001C01D92AE31B207E1F70E9496000C94A8
:1000A000F0010C9400001F920F920FB60F921124D2
:1000B0008F939F93219A85B192E0892785B90C94FB
:1000C00000009F918F910F900FBE0F901F90189579
:1000D00082E084BD9FE097BD80936E0083E085BD84
:1000E00008951F920F920FB60F9211248F939F9332
:1000F000AF93BF9380910E0190910F01A0911001D9
:10010000B09111010196A11DB11D80930E01909334
:100110000F01A0931001B0931101BF91AF919F9176
:100120008F910F900FBE0F901F9018950E94B801ED
:100130000E9412010E9464010E9468008FB78068CB
:100140008FBFD2E0C1E085B18D2785B980910E01C6
:1001500090910F01A0911001B091110140910A01FD
:1001600050910B0160910C0170910D01841B950B56
:10017000A60BB70B0A97A105B10590F080910E016F
:1001800090910F01A0911001B091110180930A018B
:1001900090930B01A0930C01B0930D010E94BF013D
:1001A00080910E0190910F01A0911001B091110169
:1001B0004091060150910701609108017091090179
:1001C000841B950BA60BB70B4497A105B10508F44A
:1001D000BACF80910E0190910F01A0911001B091C2
:1001E00011018093060190930701A0930801B09339
:1001F0000901C0931201A7CF84B18F6184B908951A
:1002000021E030E0A90102C0440F551F8A95E2F7B2
:10021000CA0195B1613019F4892B85B9089580958B
:100220008923FBCF8FB78F778FBFA89584B7877F40
:1002300084BFE0E6F0E08081886180838AE080838B
:10024000109280008BE0809381008FE293E0909386
:1002500089008093880082E080936F008FB7806868
:100260008FBF08950E94AB01811109C080911201D6
:10027000813029F085B194E0892785B9A895089542
:100280001F920F920FB60F9211242F933F934F930B
:100290005F936F937F938F939F93AF93BF93EF93EE
:1002A000FF930E943201FF91EF91BF91AF919F9117
:1002B0008F917F916F915F914F913F912F910F900F
:1002C0000FBE0F901F9018951092160110921701F3
:1002D000109218011092190110921401109213013A
:1002E00010921501089585B190E1892785B9809113
:1002F000160190911701A0911801B091190144962F
:10030000A11DB11D8093160190931701A0931801B0
:10031000B093190184369105A105B105A8F080912B
:100320001301909114010897059788F41092150114
:1003300010921601109217011092180110921901D3
:10034000109214011092130110921201089581E08D
:1003500080931501EDCF80911501089580911301CF
:1003600090911401019690931401809313010895C4
:100370000E94FC006091050180E00C94000185B1B1
:1003800098E0892785B980911A0190911B01A0916D
:100390001C01B0911D010A96A11DB11D80931A0187
:1003A00090931B01A0931C01B0931D01843F9140C9
:1003B000A105B10598F061E080910501813009F453
:1003C00060E06093050180E00E94000110921A0134
:1003D00010921B0110921C0110921D010C94AE0191
:0403E000F894FFCFBF
:0603E4000A000000010107
:00000001FF
