:100000000C9434000C9451000C9451000C94510049
:100010000C9451000C9451000C9451000C9451001C
:100020000C9451000C9451000C9451000C9442011A
:100030000C9451000C9451000C9471000C945100DC
:100040000C9451000C9451000C9451000C945100EC
:100050000C9451000C9451000C9451000C945100DC
:100060000C9451000C94510011241FBECFEFD8E026
:10007000DEBFCDBF11E0A0E0B1E0E8EEF3E002C0EA
:1000800005900D92A630B107D9F721E0A6E0B1E0C6
:1000900001C01D92AE31B207E1F70E9496000C94A8
:1000A000F2010C9400001F920F920FB60F921124D0
:1000B0008F939F93219A85B192E0892785B90C94FB
:1000C00000009F918F910F900FBE0F901F90189579
:1000D00082E084BD9FE097BD80936E0083E085BD84
:1000E00008951F920F920FB60F9211248F939F9332
:1000F000AF93BF9380910E0190910F01A0911001D9
:10010000B09111010196A11DB11D80930E01909334
:100110000F01A0931001B0931101BF91AF919F9176
:100120008F910F900FBE0F901F90189585B192E0A0
:10013000892785B90E94BA010E9414010E946601B4
:100140000E9468008FB780688FBFC1E080910E0168
:1001500090910F01A0911001B091110140910A01FD
:1001600050910B0160910C0170910D01841B950B56
:10017000A60BB70B0597A105B10590F080910E0174
:1001800090910F01A0911001B091110180930A018B
:1001900090930B01A0930C01B0930D010E94C1013B
:1001A00080910E0190910F01A0911001B091110169
:1001B0004091060150910701609108017091090179
:1001C000841B950BA60BB70B4497A105B10508F44A
:1001D000BDCF80910E0190910F01A0911001B091BF
:1001E00011018093060190930701A0930801B09339
:1001F0000901C09312010E947501A8CF84B18F61DB
:1002000084B9089521E030E0A90102C0440F551FD0
:100210008A95E2F7CA0195B1613019F4892B85B945
:10022000089580958923FBCF8FB78F778FBFA895CF
:1002300084B7877F84BFE0E6F0E0808188618083B7
:100240008AE08083109280008BE0809381008FE2AF
:1002500093E0909389008093880082E080936F0000
:100260008FB780688FBF08950E94AD01811109C0CA
:1002700080911201813029F085B194E0892785B9F8
:10028000A89508951F920F920FB60F9211242F93E5
:100290003F934F935F936F937F938F939F93AF930E
:1002A000BF93EF93FF930E943401FF91EF91BF91B1
:1002B000AF919F918F917F916F915F914F913F91FE
:1002C0002F910F900FBE0F901F901895109216014E
:1002D0001092170110921801109219011092140136
:1002E0001092130110921501089585B190E18927AC
:1002F00085B98091160190911701A0911801B091D4
:1003000019014496A11DB11D809316019093170108
:10031000A0931801B093190184369105A105B10588
:10032000A8F080911301909114010897059788F423
:1003300010921501109216011092170110921801D7
:1003400010921901109214011092130110921201CF
:10035000089581E080931501EDCF809115010895F6
:100360008091130190911401019690931401809350
:10037000130108950E94FE006091050180E00C9435
:10038000020185B198E0892785B980911A01909181
:100390001B01A0911C01B0911D010A96A11DB11D68
:1003A00080931A0190931B01A0931C01B0931D012F
:1003B000843F9140A105B10598F061E0809105016D
:1003C000813009F460E06093050180E00E94020141
:1003D00010921A0110921B0110921C0110921D0123
:0803E0000C94B001F894FFCF6A
:0603E8000A000000010103
:00000001FF
