:100000000C9434000C9451000C9451000C94510049
:100010000C9451000C9451000C9451000C9451001C
:100020000C9451000C9451000C9451000C94F60067
:100030000C9451000C9451000C945C000C945100F1
:100040000C9451000C9451000C9451000C945100EC
:100050000C9451000C9451000C9451000C945100DC
:100060000C9451000C94510011241FBECFEFD8E026
:10007000DEBFCDBF11E0A0E0B1E0E0E4F3E002C0FC
:1000800005900D92A230B107D9F721E0A2E0B1E0CE
:1000900001C01D92A231B207E1F70E9481000C94C9
:1000A0009E010C94000082E084BD9FE097BD809388
:1000B0006E0083E085BD08951F920F920FB60F92D8
:1000C00011248F939F93AF93BF93809103019091DD
:1000D0000401A0910501B09106010196A11DB11D79
:1000E0008093030190930401A0930501B09306014E
:1000F000BF91AF919F918F910F900FBE0F901F9066
:1001000018950E946A010E94CC000E941A010E9468
:1001100053008FB780688FBFC12CD12C7601C1E00E
:100120008091030190910401A0910501B091060115
:100130008C199D09AE09BF090A97A105B10580F385
:10014000C0900301D0900401E0900501F0900601F9
:100150000E94710180910001813019F41092000118
:10016000DFCFC0930001C09302010E942901D8CFC4
:10017000209A089521E030E0A90102C0440F551FE4
:100180008A95E2F7CA0195B1613019F4892B85B9D6
:10019000089580958923FBCF8FB78F778FBFA89560
:1001A00084B7877F84BFE0E6F0E080818861808348
:1001B0008AE08083109280008BE08093810088EF3A
:1001C00092E0909389008093880082E080936F0092
:1001D0008FB780688FBF08950E945D01811105C0AF
:1001E00080910201813009F0A89508951F920F9225
:1001F0000FB60F9211242F933F934F935F936F93FA
:100200007F938F939F93AF93BF93EF93FF930E943E
:10021000EC00FF91EF91BF91AF919F918F917F91F2
:100220006F915F914F913F912F910F900FBE0F9063
:100230001F90189510920701109208011092090161
:1002400010920A0110920D0110920C0110920B01F4
:1002500008958091070190910801A0910901B09142
:100260000A014496A11DB11D8093070190930801D6
:10027000A0930901B0930A0184369105A105B10547
:10028000A8F080910C0190910D010897059788F4D2
:1002900010920B01109207011092080110920901AF
:1002A00010920A0110920D0110920C01109202019D
:1002B000089581E080930B01EDCF80910B010895AB
:1002C00080910C0190910D01019690930D01809306
:1002D0000C0108950E94B8006091010180E00C9427
:1002E000BA0080910E0190910F01A0911001B09180
:1002F00011010A96A11DB11D80930E0190930F016B
:10030000A0931001B0931101843F9140A105B10564
:1003100098F061E080910101813009F460E0609320
:10032000010180E00E94BA0010920E0110920F01AC
:1003300010921001109211010C946001F894FFCFFB
:020340000101B9
:00000001FF
