:100000000C9434000C9451000C9451000C94510049
:100010000C9451000C9451000C9451000C9451001C
:100020000C9451000C9451000C9451000C94D0008D
:100030000C9451000C9451000C9464000C945100E9
:100040000C9451000C9451000C9451000C945100EC
:100050000C9451000C9451000C9451000C945100DC
:100060000C9451000C94510011241FBECFEFD8E026
:10007000DEBFCDBF11E0A0E0B1E0E8E2F2E002C0F7
:1000800005900D92A230B107D9F721E0A2E0B1E0CE
:1000900001C01D92A730B207E1F70E9473000C94D3
:1000A00012010C94000084B5826084BD85B5836024
:1000B00085BD89EF87BDEEE6F0E0808182608083B8
:1000C0008FB780688FBF08951F920F920FB60F925F
:1000D00011248F9381E0809303018F910F900FBEC5
:1000E0000F901F9018950E940B010E94A6000E947D
:1000F000F4000E945300C1E0809103018823E1F3E2
:10010000109203010E94110180910001813019F4C5
:1001100010920001F1CFC0930001C09302010E9430
:10012000FB00EACF209A089521E030E0A90102C047
:10013000440F551F8A95E2F7CA0195B1613019F451
:10014000892B85B9089580958923FBCF8FB78F7749
:100150008FBFA89584B7877F84BFE0E6F0E08081F9
:10016000886180838AE08083109280008BE0809396
:10017000810088EF92E0909389008093880082E06C
:1001800080936F008FB780688FBF08950E94FE0034
:10019000811105C080910201813009F0A895089570
:1001A0001F920F920FB60F9211242F933F934F93EC
:1001B0005F936F937F938F939F93AF93BF93EF93CF
:1001C000FF930E94C600FF91EF91BF91AF919F9165
:1001D0008F917F916F915F914F913F912F910F90F0
:1001E0000FBE0F901F9018951092060110920501F6
:1001F0001092040108951092020108958091040163
:100200000895809105019091060101969093060151
:100210008093050108950E94920061E080E00C94B3
:0802200094000895F894FFCF4B
:020228000100D3
:00000001FF
