:100000000C9434000C9451000C9451000C94510049
:100010000C9451000C9451000C9451000C9451001C
:100020000C9451000C9451000C9451000C94AE00AF
:100030000C9451000C9451000C9451000C945100FC
:100040000C9451000C9451000C9451000C945100EC
:100050000C9451000C9451000C9451000C945100DC
:100060000C9451000C94510011241FBECFEFD8E026
:10007000DEBFCDBF11E0A0E0B1E0E4EEF1E002C0F0
:1000800005900D92A230B107D9F721E0A2E0B1E0CE
:1000900001C01D92A630B207E1F70E9453000C94F4
:1000A000F0000C9400000E94E9000E9484000E946D
:1000B000D200C1E00E94EF0083EC99E00197F1F7D4
:1000C00000C0000080910001813019F410920001FD
:1000D000F1CFC0930001C09302010E94D900EACF82
:1000E000209A089521E030E0A90102C0440F551F75
:1000F0008A95E2F7CA0195B1613019F4892B85B967
:10010000089580958923FBCF8FB78F778FBFA895F0
:1001100084B7877F84BFE0E6F0E0808188618083D8
:100120008AE08083109280008BE08093810088EFCA
:1001300092E0909389008093880082E080936F0022
:100140008FB780688FBF08950E94DC00811105C0C1
:1001500080910201813009F0A89508951F920F92B5
:100160000FB60F9211242F933F934F935F936F938A
:100170007F938F939F93AF93BF93EF93FF930E94CF
:10018000A400FF91EF91BF91AF919F918F917F91CB
:100190006F915F914F913F912F910F900FBE0F90F4
:1001A0001F901895109205011092040110920301FE
:1001B000089510920201089580910301089580919D
:1001C000040190910501019690930501809304012B
:1001D00008950E94700060E080E00C947200089521
:0401E000F894FFCFC1
:0201E400010018
:00000001FF
