:100000000C9434000C9446000C9446000C9446006A
:100010000C9446000C9446000C9446000C94460048
:100020000C9446000C9446000C9446000C94AA00D4
:100030000C9446000C9446000C9446000C94460028
:100040000C9446000C9446000C9446000C94460018
:100050000C9446000C9446000C9446000C94460008
:100060000C9446000C94460011241FBECFEFD8E03C
:10007000DEBFCDBF21E0A0E0B1E001C01D92AF30F6
:10008000B207E1F70E9448000C944B010C94000069
:100090000E9417010E9480000E94CE00C1E00E94D1
:1000A0001E0183EC99E00197F1F700C0000081E0A8
:1000B00090910101911180E08093010190910201E2
:1000C000891302C0C0930001913019F4109202010B
:1000D000E6CF0E94D500E3CF209A089521E030E0DA
:1000E000A90102C0440F551F8A95E2F7CA0195B1D4
:1000F000613019F4892B85B9089580958923FBCF48
:100100008FB78F778FBFA89584B7877F84BFE0E6CE
:10011000F0E08081886180838AE080831092800093
:100120008BE0809381008CE093E090938900809332
:10013000880082E080936F008FB780688FBF08953A
:100140000E940A01811105C080910001813009F0EF
:10015000A89508951F920F920FB60F9211242F9316
:100160003F934F935F936F937F938F939F93AF933F
:10017000BF93EF93FF930E94A000FF91EF91BF9177
:10018000AF919F918F917F916F915F914F913F912F
:100190002F910F900FBE0F901F901895109209018C
:1001A0001092080110920701089580910301909127
:1001B0000401A0910501B09106014496A11DB11D55
:1001C0008093030190930401A0930501B09306016D
:1001D00084369105A105B105A8F0809108019091A0
:1001E00009010897059790F41092070110920301F6
:1001F000109204011092050110920601109209015B
:100200001092080181E080930201089581E08093BB
:100210000701ECCF8091070108958091080190912A
:1002200009010196909309018093080108950E94A5
:100230006C0060910A0180E00C946E0080910B01CB
:1002400090910C01A0910D01B0910E010A96A11D93
:10025000B11D80930B0190930C01A0930D01B093FD
:100260000E01843F9140A105B10598F061E08091B5
:100270000A01813009F460E060930A0180E00E9485
:100280006E0010920B0110920C0110920D01109251
:0A0290000E010C940D01F894FFCF4D
:00000001FF
