:100000000C9434000C9446000C9446000C9446006A
:100010000C9446000C9446000C9446000C94460048
:100020000C9446000C9446000C9446000C949E00E0
:100030000C9446000C9446000C9446000C94460028
:100040000C9446000C9446000C9446000C94460018
:100050000C9446000C9446000C9446000C94460008
:100060000C9446000C94460011241FBECFEFD8E03C
:10007000DEBFCDBF21E0A0E0B1E001C01D92AD30F8
:10008000B207E1F70E9448000C943E010C94000076
:100090000E940A010E9474000E94C200C0E0D1E0E8
:1000A0000E94110183EC99E00197F1F700C0000074
:1000B000C13021F0D0930001C1E0F2CFC0E0F0CF19
:1000C000209A089521E030E0A90102C0440F551F95
:1000D0008A95E2F7CA0195B1613019F4892B85B987
:1000E000089580958923FBCF8FB78F778FBFA89511
:1000F00084B7877F84BFE0E6F0E0808188618083F9
:100100008AE08083109280008BE0809381008CE0F5
:1001100093E0909389008093880082E080936F0041
:100120008FB780688FBF08950E94FD00811105C0C0
:1001300080910001813009F0A89508951F920F92D7
:100140000FB60F9211242F933F934F935F936F93AA
:100150007F938F939F93AF93BF93EF93FF930E94EF
:100160009400FF91EF91BF91AF919F918F917F91FB
:100170006F915F914F913F912F910F900FBE0F9014
:100180001F90189510920701109206011092050118
:1001900008958091010190910201A0910301B09115
:1001A00004014496A11DB11D8093010190930201A9
:1001B000A0930301B093040184369105A105B10514
:1001C000A8F080910601909107010897059788F49F
:1001D0001092050110920101109202011092030188
:1001E0001092040110920701109206011092000172
:1001F000089581E080930501EDCF80910501089578
:1002000080910601909107010196909307018093D8
:10021000060108950E9460006091080180E00C943E
:1002200062008091090190910A01A0910B01B091A7
:100230000C010A96A11DB11D8093090190930A013A
:10024000A0930B01B0930C01843F9140A105B1052F
:1002500098F061E080910801813009F460E06093DA
:10026000080180E00E9462001092090110920A01C8
:1002700010920B0110920C010C940001F894FFCF26
:00000001FF
