:100000000C9434000C9446000C9446000C9446006A
:100010000C9446000C9446000C9492000C944600FC
:100020000C9446000C9446000C9446000C94460038
:100030000C9446000C9446000C9446000C94460028
:100040000C9446000C9446000C9446000C94460018
:100050000C9446000C9446000C9446000C94460008
:100060000C9446000C94460011241FBECFEFD8E03C
:10007000DEBFCDBF21E0A0E0B1E001C01D92AF30F6
:10008000B207E1F70E9448000C941A010C9400009A
:100090000E94E6000E9480000E949D00C1E00E9434
:1000A000ED0083EC99E00197F1F700C0000081E0DA
:1000B00090910101911180E08093010190910201E2
:1000C000891302C0C0930001913019F4109202010B
:1000D000E6CF0E94A400E3CF209A089521E030E00B
:1000E000A90102C0440F551F8A95E2F7CA0195B1D4
:1000F000613019F4892B85B9089580958923FBCF48
:10010000A89588E19AE00FB6F894A89580936000CE
:100110000FBE909360007894E0E6F0E08081806408
:10012000808308950E94D900811106C0809100014A
:10013000813011F00C948000089510920901109202
:100140000801109207010895809103019091040124
:10015000A0910501B09106014496A11DB11D8093A7
:10016000030190930401A0930501B0930601843626
:100170009105A105B105A8F08091080190910901B0
:100180000897059790F410920701109203011092BE
:1001900004011092050110920601109209011092BB
:1001A000080181E080930201089581E080930701B6
:1001B000ECCF809107010895809108019091090189
:1001C0000196909309018093080108950E946C00A4
:1001D00060910A0180E00C946E0080910B01909177
:1001E0000C01A0910D01B0910E010A96A11DB11D47
:1001F00080930B0190930C01A0930D01B0930E011D
:10020000843F9140A105B10598F061E080910A0119
:10021000813009F460E060930A0180E00E946E0082
:1002200010920B0110920C0110920D0110920E0110
:080230000C94DC00F894FFCFF0
:00000001FF
