:020000040800F2
:100000000000012061020008650200086702000884
:100010007D0200087F020008950200080000000031
:10002000000000000000000000000000AB0200081B
:10003000AD02000800000000AF020008B102000895
:10004000A90B0008C5020008C5020008C502000887
:10005000C5020008C5020008C5020008C502000864
:10006000C5020008C5020008C5020008C502000854
:10007000C5020008C5020008C5020008C502000844
:10008000C5020008C5020008C50200080000000003
:10009000000000000000000000000000C502000891
:1000A000C5020008C5020008C5020008C502000814
:1000B000C5020008C5020008C5020008C502000804
:1000C000C5020008C5020008C5020008C5020008F4
:1000D000C5020008C5020008C502000800000000B3
:1000E000C5020008C5020008C502000800000000A3
:1000F000000000000000000000000000C502000831
:1001000000000000C5020008C5020008C502000882
:1001100000000000000000000000000000000000DF
:10012000C5020008C5020008C5020008C502000893
:10013000C5020008000000000000000000000000F0
:10014000000000000000000000000000C5020008E0
:10015000C5020008C5020008C5020008C502000863
:10016000C5020008C50200080000000000000000F1
:10017000000000000000000000000000000000007F
:1001800000000000C50200080000000000000000A0
:10019000C502000807B500F0D9FB274B274883426A
:1001A00026D3274A274900208A422CD300F07AFC24
:1001B000254D264C01A9684600F0C0FB641BA41025
:1001C0000026B44228DC224D224C641BA4100026D9
:1001D000B44226DCDDE9000100F078FC1E4E1F4C25
:1001E000A41B0546A410002C20DC284600F0A2FB2E
:1001F000D3E900129C680C33891A9442CFD9555820
:1002000015600432F9E752F8083B52F8044C9C425E
:10021000CAD943F8040BFAE755F8043B984701366E
:10022000CFE755F8043B98470136D1E7013C56F833
:1002300024309847D7E700BFC8020008E002000852
:10024000E0020008F0020008F0020008F0020008D6
:10025000F0020008F0020008F0020008F0020008B6
:1002600014480047FEE71EF0040F0CBFEFF30880B0
:10027000EFF309807146104A1047FEE7FEE71EF0D3
:10028000040F0CBFEFF30880EFF3098071460B4AAF
:100290001047FEE71EF0040F0CBFEFF30880EFF3EA
:1002A00009807146064A1047FEE7FEE7FEE7FEE7D3
:1002B00070470000950100087B02000893020008C7
:0602C000A9020008FEE7A0
:1002C8005C0F000800000020180000205C0F0008E8
:1002D8000000001000000010180000202800002076
:0802E8000000001000000010EE
:1002F00038B50E4A0E4B054618784FF47A73B3FBA7
:10030000F0F31068B0FBF3F000F07AF8044658B947
:100310000F2D09D8024629464FF0FF3000F03EF875
:10032000044B20461D6038BD0120FCE71000002072
:10033000000000200400002008B50B4B1A6842F4AE
:1003400000721A601A6842F480621A601A6842F4F5
:1003500080721A60032000F00FF80F20FFF7C8FF2B
:1003600000F0CEFB002008BD003C0240014B1868A5
:10037000704700BF180000200749CA6822F4E062F5
:100380000302120403F4E063120C134343F0BF634F
:1003900043F40033CB60704700ED00E0164B30B5FE
:1003A000DC68C4F30224C4F10703251D042B28BF15
:1003B0000423062D4FF0FF3505FA03F38CBF033CF1
:1003C000002421EA0303A34005FA04F422EA04020C
:1003D000002843EA0203ACBF00F16040074A4FEA3D
:1003E0000313B8BF00F00F00DBB2AABF00F56140F5
:1003F000135480F8003330BD00ED00E014ED00E050
:100400000138B0F1807F0BD24FF0E023054A5861EC
:10041000F02182F823100020072298611A617047AA
:100420000120704700ED00E04FF0E02304281A6936
:100430000CBF42F0040222F004021A61704700006F
:100440002DE9F341044640B30368DD0710D4236867
:1004500098075ED423681A0700F1A08023685B0721
:1004600000F1C080A069002840F0288100202BE026
:100470008F4B9A6802F00C02042A07D09A6802F0A7
:100480000C02082A0BD15A68510208D5884B1B6808
:100490009A03DCD56368002BD9D1012014E062688F
:1004A000B2F5803F13D11A6842F480321A60FFF728
:1004B0005DFF7F4E054633689B03C8D4FFF756FFA8
:1004C000401B6428F7D9032002B0BDE8F081784DC5
:1004D000B2F5A02F2B6807D143F480232B602B6843
:1004E00043F480332B60E2E723F480332B602B68E6
:1004F00023F480232B60002AD9D1FFF737FF06466B
:100500002B689F03A3D5FFF731FF801B6428F7D921
:10051000D9E7674B9A6812F00C0F07D09A6802F07F
:100520000C02082A11D15B685E020ED4604A13687F
:100530009D0702D5E368012BAFD11368216923F031
:10054000F80343EAC103136084E7E268594BB2B190
:1005500001221A60FFF70AFF554D06462B689807DF
:1005600007D52B68226923F0F80343EAC2032B6006
:1005700070E7FFF7FBFE801B0228EFD9A3E71A60A4
:10058000FFF7F4FE4A4E0546336899077FF562AFE0
:10059000FFF7ECFE401B0228F6D994E76269454B51
:1005A00082B10122C3F8802EFFF7E0FE404E0546DF
:1005B000736F9F073FF552AFFFF7D8FE401B02282D
:1005C000F6D980E7C3F8802EFFF7D0FE384E0546F7
:1005D000736F98077FF542AFFFF7C8FE401B0228F4
:1005E000F6D970E7324B1A6C12F0805228D1019282
:1005F0001A6C42F080521A641B6C03F08053019312
:10060000019B01272C4D2B68D9051BD5A368284DCC
:10061000012B27D12B6F43F001032B67FFF7A6FEB9
:10062000234E054641F28838336F9B0739D5002F9A
:100630003FF418AF1E4A136C23F08053136411E784
:100640000027DFE72B6843F480732B60FFF78EFEF3
:1006500006462B68DA05D9D4FFF788FE801B0228EE
:10066000F7D930E7052B04D12B6F43F004032B6738
:10067000D0E72A6F22F001022A672A6F22F00402D3
:100680002A67002BCAD1FFF771FE41F2883806466F
:100690002B6F9807CBD5FFF769FE801B4045F7D934
:1006A00011E7FFF763FE401B4045BDD90BE700BFD4
:1006B000003802400000474200700040334DAB68F4
:1006C00003F00C03082B3DD0314B002202281A66A0
:1006D0002BD1FFF74BFE06462B6899011FD4D4E9B6
:1006E00007321343626A43EA8213E26A43EA02630F
:1006F000A26A5208013A43EA02436B60244B234D3D
:1007000001221A66FFF732FE04462B689A013FF574
:10071000ADAEFFF72BFE001B0228F6D9D3E6FFF79C
:1007200025FE801B0228D7D9CDE6FFF71FFE044621
:100730002B689B017FF59AAEFFF718FE001B02287D
:10074000F6D9C0E601283FF4BFAE6B68E26903F456
:10075000800191427FF4A1AE216A03F03F028A42F8
:100760007FF49BAE616A47F6C0721A408A427FF4FA
:1007700094AEA16A03F440328A427FF48EAEE26AFC
:1007800003F0706393423FF471AE86E60038024096
:1007900000004742134908B58B6803F00C03042B93
:1007A0001CD0082B1CD14A684B68496813F480039D
:1007B00014BF0D480D48C1F3881118BF002302F083
:1007C0003F02A1FB000100F03BFA064B5B68C3F35C
:1007D000014301335B00B0FBF3F008BD0248FCE7C6
:1007E0000248FAE70038024000127A000024F400C0
:1007F0002DE9F0410D46044610B90120BDE8F08115
:10080000444B1A6802F00F028A4228D322689707E5
:100810002DD4D00741D43F4B1A6802F00F02AA42F0
:1008200066D8226851076CD4130707D53A4A216964
:10083000936823F4604343EAC1039360FFF7AAFF80
:10084000354B364A9B68C3F30313D35CD840344B13
:100850001860344B1868FFF74BFD0020CEE7CAB292
:100860001A701B6803F00F038B42C6D1CEE72A4BE8
:1008700012F0040F1EBF996841F4E0519960160709
:1008800042BF996841F4604199602349A0688B6830
:1008900023F0F00303438B60BBE762681E4B012A21
:1008A0001CD11B6813F4003FA7D01B4EB36823F084
:1008B00003031343B360FFF759FD41F2883807463D
:1008C000B368626803F00C03B3EB820FA3D0FFF7A9
:1008D0004DFDC01B4045F3D903208FE7911E012930
:1008E0001B6802D813F0007FDEE713F0020FDBE78E
:1008F000EAB21A701B6803F00F03AB427FF47DAFBE
:100900008FE70549E0688B6823F4E05303438B606D
:100910008AE700BF003C024000380240440F000854
:100920001000002004000020014B1868704700BF31
:100930001000002008B500F015F800000123036046
:10094000014B0B60704700BF0800002008B500F0A5
:100950001BF8024B024A9A6008BD00BF00ED00E0A0
:1009600000000008BFF34F8F0549064BCA6802F428
:10097000E0621343CB60BFF34F8F00BFFDE700BFC2
:1009800000ED00E00400FA05024B4FF000629A60AF
:10099000704700BF00ED00E0174A1849936803F064
:1009A0000C03042B0DD0082B0DD0154B0B60124BF4
:1009B000144A9B68C3F30313D25C0B68D3400B60EB
:1009C0007047114BF2E75368506813F4800F00F042
:1009D0003F00536814BF0C4A094AB2FBF0F0064AC4
:1009E0005268C2F30142C3F38813013243435200F9
:1009F000B3FBF2F3DAE700BF00380240100000203A
:100A00000024F400440F000800127A0070B594B07E
:100A10000024224B01941A6C42F080521A641B6C21
:100A200003F080530193019B1D4B02941A6842F41A
:100A300040421A601B6803F4404302930122029B68
:100A40004FF48033CDE908234FF480010823CDE92A
:100A50000F1304264FF4A8730225CDE9113608A818
:100A6000072313930E95FFF7EBFC0F232946CDE9DF
:100A7000033503A84FF48053CDE906340594FFF7FE
:100A8000B7FEFFF751FF4FF47A73B0FBF3F0FFF7B7
:100A9000B7FC3046FFF7C8FC14B070BD0038024008
:100AA0000070004008B5FFF747FCFFF7AFFFBDE857
:100AB0000840FFF771BF82B000230193019B83427E
:100AC00001D302B07047019B0133F6E708B500F08F
:100AD0007BF800F029F800F015F8084C00210420FC
:100AE00000F09EF82046FFF7E6FF0121042000F009
:100AF00097F82046FFF7DFFFF0E700BF00093D0051
:100B000070470000034B00221A60034B01221A7049
:100B1000704700BF2000002014000020014B18780F
:100B2000704700BF14000020154AD2F8403843F443
:100B30000063C2F84038134BD3F8042C42F400721F
:100B4000C3F8042CD3F8042C42F4C072C3F8042C6C
:100B5000D3F8042C42F07F02C3F8042C0522C3F81A
:100B6000002CD3F8002C42F08002C3F8002C4FF088
:100B7000E022D2F8003143F00103C2F8003170479F
:100B8000003002400020004008B5FFF7C7FF38B929
:100B9000044BD3F8082CD20744BF8522C3F8002C9D
:100BA00008BD00BF00200040064BD3F8082CD20738
:100BB00007D5D3F8082C22F00102C3F8082CFFF760
:100BC000E3BF70470020004008B500F009F8034B70
:100BD00004201978BDE8084000F022B82400002065
:100BE0000D4AD2F8303843F00103C2F830380B4BCD
:100BF0001A6822F4407242F480721A605A6822F035
:100C000010025A609A6822F440729A60DA6822F4FC
:100C10004072DA60704700BF0030024000000240BE
:100C200010B5064C012303FA00F2636901FA00F0E3
:100C300023EA02030343636110BD00BF00000240CA
:100C400053B94AB9002908BF00281CBF4FF0FF3133
:100C50004FF0FF3000F074B9ADF1080C6DE904CE2F
:100C600000F006F8DDF804E0DDE9022304B0704787
:100C70002DE9F047089E0D4604468846002B4DD1CD
:100C80008A42944668D9B2FA82F252B101FA02F36A
:100C9000C2F1200120FA01F10CFA02FC41EA03083A
:100CA00094404FEA1C45210CB8FBF5FE1FFA8CF767
:100CB00005FB1E8341EA03430EFB07F199420BD962
:100CC0001CEB03030EF1FF3080F01E81994240F2CD
:100CD0001B81AEF1020E63445B1AA4B2B3FBF5F0C4
:100CE00005FB103344EA034400FB07F7A7420AD987
:100CF0001CEB040400F1FF3380F00881A74240F2AE
:100D0000058164440238E41B40EA0E4000211EB114
:100D1000D4400023C6E90043BDE8F0878B4208D9E0
:100D2000002E00F0EE800021C6E900050846BDE86F
:100D3000F087B3FA83F100294AD1AB4202D3824251
:100D400000F2F980841A65EB030301209846002E17
:100D5000E2D0C6E90048DFE702B9FFDEB2FA82F26C
:100D6000002A40F09180A1EB0C054FEA1C471FFAC6
:100D70008CFE0121B5FBF7F307FB1350250C45EA68
:100D800000450EFB03F0A84208D91CEB050503F152
:100D9000FF3802D2A84200F2CB8043462D1AA4B2FB
:100DA000B5FBF7F007FB105544EA05440EFB00FEC7
:100DB000A64508D91CEB040400F1FF3502D2A64574
:100DC00000F2BB802846A4EB0E0440EA03409EE7F5
:100DD000C1F120078B4022FA07FC4CEA030C20FAF1
:100DE00007F405FA01F31C43FD404FEA1C4900FAE1
:100DF00001F3B5FBF9F8200C1FFA8CFE09FB18551E
:100E000040EA054508FB0EF0A84202FA01F20BD9B0
:100E10001CEB050508F1FF3A80F08880A84240F2FB
:100E20008580A8F1020865442D1AA4B2B5FBF9F03B
:100E300009FB105544EA054500FB0EFEAE4508D9F6
:100E40001CEB050500F1FF346CD2AE456AD90238BF
:100E5000654440EA0840A0FB0294A5EB0E05A542BC
:100E6000C846A64656D353D05EB1B3EB080265EB35
:100E70000E0505FA07F722FA01F3CD401F43C6E934
:100E800000750021BDE8F087C2F1200320FA03F1CC
:100E90000CFA02FC25FA03F395400D434FEA1C4778
:100EA0001FFA8CFEB3FBF7F107FB11302B0C43EA62
:100EB000004301FB0EF0984204FA02F408D91CEB3F
:100EC000030301F1FF382FD298422DD90239634430
:100ED0001B1AADB2B3FBF7F007FB103345EA03452D
:100EE00000FB0EF3AB4208D91CEB050500F1FF38FF
:100EF00016D2AB4214D902386544ED1A40EA0141DA
:100F000038E73146304607E78646E5E61846FAE612
:100F10004B45A9D2B9EB020864EB0C0E0138A3E7EC
:100F20004046EAE7204694E74146D1E7D0467BE7D2
:100F3000023B654432E7084609E76444023842E769
:100F4000704700BF00000000000000000102030421
:040F5000060708097F
:080F54001CFDFF7F01000000FD
:100F5C0001FFFFFF100000001C000020000000003B
:080F6C000024F40001FFFFFF67
:040000050800019559
:00000001FF
