:100000000C9434000C9451000C9451000C94510049
:100010000C9451000C9451000C9451000C9451001C
:100020000C9451000C9451000C9451000C9432012A
:100030000C9451000C9451000C945C000C945100F1
:100040000C9451000C9451000C9451000C945100EC
:100050000C9451000C9451000C9451000C945100DC
:100060000C9451000C94510011241FBECFEFD8E026
:10007000DEBFCDBF11E0A0E0B1E0E2ECF3E002C0F2
:1000800005900D92A230B107D9F721E0A2E0B1E0CE
:1000900001C01D92AA31B207E1F70E9481000C94C1
:1000A000DF010C94000082E084BD9FE097BD809347
:1000B0006E0083E085BD08951F920F920FB60F92D8
:1000C00011248F939F93AF93BF9380910A019091D6
:1000D0000B01A0910C01B0910D010196A11DB11D64
:1000E00080930A0190930B01A0930C01B0930D0132
:1000F000BF91AF919F918F910F900FBE0F901F9066
:100100001895219A199A0E94A8010E94FB000E944A
:1001100056010E9453008FB780688FBFC1E0809165
:100120000A0190910B01A0910C01B0910D01409139
:100130000601509107016091080170910901841B2B
:10014000950BA60BB70B0597A105B10590F0809113
:100150000A0190910B01A0910C01B0910D018093C7
:10016000060190930701A0930801B09309010E9432
:10017000B10180910A0190910B01A0910C01B09105
:100180000D014091020150910301609104017091B1
:100190000501841B950BA60BB70B4497A105B10570
:1001A00008F4BDCF80910A0190910B01A0910C0140
:1001B000B0910D018093020190930301A09304017B
:1001C000B0930501C0930E010E946601A8CF209A4A
:1001D000089521E030E0A90102C0440F551F8A951F
:1001E000E2F7CA0195B1613019F4892B85B90895F8
:1001F00080958923FBCF8FB78F778FBFA89584B762
:10020000877F84BFE0E6F0E08081886180838AE0B8
:100210008083109280008BE0809381008FE293E0D6
:10022000909389008093880082E080936F008FB75D
:1002300080688FBF229A08950E949B01811107C098
:1002400080910E01813019F01A9AA895089588E1DD
:1002500098E00FB6F894A895809360000FBE909335
:10026000600008951F920F920FB60F9211242F93E2
:100270003F934F935F936F937F938F939F93AF932E
:10028000BF93EF93FF930E941C01FF91EF91BF91E9
:10029000AF919F918F917F916F915F914F913F911E
:1002A0002F910F900FBE0F901F9018951092120172
:1002B0001092130110921401109215011092100166
:1002C00010920F0110921101249A08951C9A8091A6
:1002D000120190911301A0911401B091150144965F
:1002E000A11DB11D8093120190931301A0931401DD
:1002F000B093150184369105A105B105A8F0809150
:100300000F01909110010897059788F41092110140
:100310001092120110921301109214011092150103
:100320001092100110920F0110920E01089581E0B9
:1003300080931101EDCF80911101089580910F01FB
:100340009091100101969093100180930F010895F0
:100350000E94E7006091000180E00E94E900239A7A
:1003600008951B9A8091160190911701A091180190
:10037000B09119010A96A11DB11D809316019093A9
:100380001701A0931801B0931901843F9140A10572
:10039000B10598F061E080910001813009F460E0DE
:1003A0006093000180E00E94E90010921601109213
:1003B000170110921801109219010C949E01F894E3
:0203C000FFCF6D
:0203C200010038
:00000001FF
